:020000040000FA
:04000000B3EF08F062
:07080000006D65677A00003E
:100808002B50800B346E2B502B24366E2ABE36802C
:100818003650D8B40DD03628D8A408D0000E286E8B
:10082800000E296E000E2A6E000E2B6E2A8E06D040
:10083800000E286E000E296E000E2A6E000E2B6E1A
:100848002F50800B356E34503518D8A4348C2F5067
:100858002F24356E2EBE35803550D8B40DD03528AE
:10086800D8A408D0000E2C6E000E2D6E000E2E6E31
:10087800000E2F6E2E8E06D0000E2C6E000E2D6EE2
:10088800000E2E6E000E2F6E3650355CD8B022D07A
:1008980034AC02D0800E341A36C037F035C036F08A
:1008A80037C035F028C037F02CC028F037C02CF0FE
:1008B80029C037F02DC029F037C02DF02AC037F0F5
:1008C8002EC02AF037C02EF02BC037F02FC02BF0E7
:1008D80037C02FF0000E376E365035C030F0316A11
:1008E800305E000E315A31BE2CD0315004E11A0E60
:1008F800305CD8A026D0285029102A102B10D8B444
:1009080002D0010E01D0000E376E000E286E000EC8
:10091800296E000E2A6E000E2B6E35C036F015D0EB
:1009280037A005D0D89037300109376E02D0D8905B
:10093800373228B0378E2B342B322A3229322832DC
:10094800362A3550365CD8A0EBD734BC28D0365080
:10095800D8A409D0000E286E000E296E000E2A6E4B
:10096800000E2B6E12002C5028262D5029222E50B6
:100978002A222F502B222BA071D037A005D0D89037
:1009880037300109376E02D0D890373228B0378E09
:100998002B342B322A3229322832362A5FD02C5077
:1009A800285C2D5029582E502A582B50800A306E1A
:1009B8002F50800A3058D8B025D028502C5C306E83
:1009C80029502D58316E2A502E58326E2B502F58E0
:1009D800336EFF0E3024286EFF0E3120296EFF0E75
:1009E80032202A6EFF0E33202B6E800E341A376C9D
:1009F8003750D8A40FD0010E2826000E29222A220B
:100A08002B2208D02C50285E2D50295A2E502A5AB5
:100A18002F502B5A285029102A102B10D8A41CD03C
:100A28003750D8A419D0000E286E000E296E000E7B
:100A38002A6E000E2B6E1200D890283629362A36D8
:100A48002B3637BE288037A002D0D88001D0D89066
:100A580037363650D8A436062AAEEED7000E356E95
:100A680037AE0BD037C030F07F0E3016D8B403D075
:100A7800010E356E02D028B0FBD73550D8B420D03F
:100A8800010E2826000E29222A222B222BA018D05C
:100A980028C030F029C031F02AC032F02BC033F022
:100AA8003334333232323132303230C028F031C050
:100AB80029F032C02AF033C02BF03628D8A4362AC1
:100AC8003628D8B403D03650D8A40DD0000E286EDE
:100AD800000E296E000E2A6E000E2B6E3650D8A41A
:100AE80002D0000E346E36A002D02A8E01D02A9E83
:100AF800D89036302B6E34BE2B8E28C028F029C0F3
:100B080029F02AC02AF02BC02BF012001250800BBB
:100B18001F6E12501224266E11BE26802650D8B49D
:100B28000DD02628D8A408D0000E0F6E000E106E27
:100B3800000E116E000E126E118E06D0000E0F6E92
:100B4800000E106E000E116E000E126E1650800B05
:100B58001F1A16501624276E15BE27802750D8B4A2
:100B68000DD02728D8A408D0000E136E000E146EDE
:100B7800000E156E000E166E158E06D0000E136E42
:100B8800000E146E000E156E000E166E1350141023
:100B980015101610D8A417D0000E0F6E000E106E88
:100BA800000E116E000E126E800E11127F0E1212C0
:100BB8001F5012120FC00FF010C010F011C011F02A
:100BC80012C012F012002650D8A409D0000E0F6EE1
:100BD800000E106E000E116E000E126E12002750DD
:100BE80026C017F0186A175E000E185A7F0E1724D1
:100BF800206E000E1820216E0FC01BF010C01CF0D4
:100C080011C01DF012C01EF0000E0F6E000E106E07
:100C1800000E116E000E126E000E226E000E236E74
:100C2800000E246E000E256E000E276E28D0275069
:100C3800D8B411D0D8901B361C361D361E36D89025
:100C48000F3610361136123625BE0F80D890223650
:100C580023362436253613501B5C14501C58155067
:100C68001D5816501E58D8A009D0258C13501B5E4D
:100C780014501C5A15501D5A16501E5A272A190E60
:100C88002764D5D71B501C101D101E10D8B411D0C6
:100C980022800FD0D8900F3610361136123625BE66
:100CA8000F80D89022362336243625362006D8A041
:100CB800210611AEEFD7000E276E25AE17D0FF0E16
:100CC8002214176EFF0E2314186EFF0E2414196ECB
:100CD8007F0E25141A6E1750181019101A10D8B450
:100CE80003D0010E276E02D00FB0FBD72750D8B41F
:100CF8001FD0010E0F26000E10221122122212A060
:100D080017D00FC017F010C018F011C019F012C09A
:100D18001AF01A341A3219321832173217C00FF073
:100D280018C010F019C011F01AC012F0204A212A78
:100D380021BE10D0215003E12028D8A00BD0000EEE
:100D4800216E2068000E0F6E000E106E000E116EE0
:100D5800000E126E21BE05D0215011E12004D8B03A
:100D68000ED0000E216E000E206E000E0F6E000ECB
:100D7800106E000E116E000E126E000E1F6E20C057
:100D880026F026A002D0118E01D0119ED8902630D0
:100D9800126E0ED7096E0950D8A404AE1AD001C03D
:100DA80005F002C006F003C007F004C008F0051EF5
:100DB800061E071E081E052A000E06220722082204
:100DC80005C00BF006C00CF007C00DF008C00EF00F
:100DD80008D001C00BF002C00CF003C00DF004C035
:100DE8000EF00150021003100410D8A409D0000E10
:100DF800016E000E026E000E036E000E046E1200ED
:100E0800960E0A6E06D00A2AD8900E320D320C328F
:100E18000B32000E0B14056E000E0C14066E000E3D
:100E28000D14076EFE0E0E14086E055006100710FE
:100E38000810D8B40DD0E7D70A2A010E0B26000EE9
:100E48000C220D220E22D8900E320D320C320B32AB
:100E5800000E0B14056E000E0C14066E000E0D1419
:100E6800076EFF0E0E14086E0550061007100810C6
:100E7800D8B407D0E1D70A06D8900B360C360D3611
:100E88000E360DBE03D0020E0A60F5D70AA00D9EDD
:100E9800D8900A320AC005F0066A076A086A05C0CF
:100EA80008F0076A066A056A05500B1206500C120C
:100EB80007500D1208500E120950D8A404AE01D0E4
:100EC8000E8E0BC001F00CC002F00DC003F00EC076
:100ED80004F012003A343B34416E4150D8A409D092
:100EE800000E386E000E396E000E3A6E000E3B6E24
:100EF800120038C03CF039C03DF03AC03EF03BC06B
:100F08003FF0200E05D0D8903F323E323D323C3281
:100F1800E82EF9D73C50406E3A8EFF0E3816FF0E79
:100F28003916FF0E3A16000E3B16960E415E41AE7C
:100F38000DD04150800A970FD8A0D2D7D8903B3215
:100F48003A3239323832413EF9D70DD01F0E41645A
:100F580007D0C6D7D890383639363A363B364106A8
:100F68004150D8A4F7D74050D8B408D03B1E3A1EF9
:100F7800391E386C000E39223A223B2238C038F02C
:100F880039C039F03AC03AF03BC03BF01200720E5B
:100F9800D36E94908B90250E436E800E426E17ECA4
:100FA80008F0000E026E050E016E83EC08F0C1EC2D
:100FB80008F00009D8B40FD0680EA9EC08F00A0EA2
:100FC800A9EC08F00D0EA9EC08F0000E026E050E53
:100FD800016E83EC08F0C1EC08F00009D8B412D017
:100FE800010E086E080E096E59EC08F00A0EA9ECFD
:100FF80008F00D0EA9EC08F0000E026E050E016E49
:1010080083EC08F0070E026ED00E016E83EC08F038
:101018009DEC08F0610AD8A4CAD78BB002D08B80A7
:10102800C6D78B90C4D7949C948E000EB86E000ED1
:101038002C6E000E2D6E800E2E6EBF0E2F6E42C0CF
:1010480001F043C002F0036A046A000ECEEC06F019
:1010580001C013F002C014F003C015F004C016F06C
:10106800000E0F6E240E106EF40E116E470E126EE7
:101078008AEC05F00FC028F010C029F011C02AF042
:1010880012C02BF004EC04F028C038F029C039F065
:101098002AC03AF02BC03BF06EEC07F03850AF6E28
:1010A800200EAC6E900EAB6E1200000E0D6E000E90
:1010B8000C6E15D0C1EC08F00009D8B4FBD70C5061
:1010C80008240A6E0D5009200B6E0AC0F6FF0BC0EB
:1010D800F7FF0800F550A9EC08F00C4A0D2A0C504F
:1010E80008240A6E0D5009200B6E0AC0F6FF0BC0CB
:1010F800F7FF0800F5500009D8B41200DBD7000E3E
:10110800046E000E036E0ED0000E066E000E056E05
:10111800054A062A065004E1A50E055CD8A0F8D7B2
:10112800034A042A0150035C02500458D8B0120044
:10113800EBD7ABA203D0AB9800F0AB88BAEC08F0C1
:101148000009D8B4FBD7AE501200076E07C0ADFF38
:10115800000E026E050E016E83EC08F01200000E00
:10116800F86E080EF76E0001CBEF07F09E38E842E4
:10117800070B010B016E015012009E380F0B010B7B
:06118800016E015012008F
:020000040020DA
:08000000FFFFFFFFFFFFFFFF00
:020000040030CA
:0E00000000081F1EFF8185FF0FC00FE00F409C
:00000001FF
