:020000040000FA
:0400000026EF3FF0B8
:107E34009EA6FED79E961200C5821AEC3FF0120051
:107E4400C5841AEC3FF01200186A00018BEF3FF072
:107E5400C588C59A1AEC3FF01200C588C58A1AEC89
:107E64003FF012003AEC3FF0C5801AEC3FF01200EC
:107E7400C5CF01F01F0E0116D8A4FAD7C7A412006B
:107E8400F7D7016E01C0C9FF1AEC3FF0C5AC120070
:107E94001EEC3FF0F7D7016EC586C7A0FED7C59686
:107EA4000150D8A403D02AEC3FF002D02FEC3FF0CD
:107EB400C950120093809382C78EC79C280EC66E49
:107EC400000EC56E000E016E120E026E7A0E036E67
:107ED400000E046E0EC012F00FC013F010C014F0A8
:107EE40011C015F0020ED89012361336143615361A
:107EF400E82EF9D712C005F013C006F014C007F03D
:107F040015C008F0BFEC3FF00104C86E9D869E9634
:107F14001200000E956E000E8C6EA00E0E6E860E74
:107F24000F6E010E106E000E116E5CEC3FF034EC1F
:107F34003FF0A20E43EC3FF0550E43EC3FF022EC31
:107F44003FF0000E176E000E166E164A172A17BE63
:107F5400FCD7100E165C270E1758D8A0F6D734ECB1
:107F64003FF0A30E43EC3FF0000E4DEC3FF0186ED3
:107F740022EC3FF018C08CFFFFD7000E096E000EF4
:107F84000A6E000E0B6E000E0C6E055006100710E4
:107F94000810D8B42AD0010E0D6E06D0D89005363C
:107FA4000636073608360D2A08AEF8D7D8900936B3
:107FB4000A360B360C360550015C06500258075041
:107FC400035808500458D8A009D00550015E065043
:107FD400025A0750035A0850045A0980D8900832AC
:107FE4000732063205320D2EE1D709C001F00AC06E
:0C7FF40002F00BC003F00CC004F01200FF
:020000040020DA
:08000000FFFFFFFFFFFFFFFF00
:020000040030CA
:0E00000000081F1EFF0185FF0FC00FE00F401C
:00000001FF
