:020000040000FA
:0400000007EF00F016
:10000800038209ED00F047EF00F006009EA621D01C
:10001800C698C6BE02D0C6AC05D0C9CF01F0C69EF0
:10002800C69CC688C7AAC7B40AD0C9CF01F0C7A062
:10003800FED7C9CF01F001C08CFFC68809D0C7AA76
:10004800C7A406D0C9CF01F0C968C688C7B0FED713
:100058009E9603921100026E93809382C78EC79C6E
:10006800360EC66EC59EC58002C0C8FF9D869E9688
:10007800F28EF28C1200000E956E000E8C6EA20E9F
:100088002FEC00F0FFD7016A0390039200013FEFC5
:0200980000F076
:020000040020DA
:08000000FFFFFFFFFFFFFFFF00
:020000040030CA
:0E0000000008191EFF0185FF0FC00FE00F4022
:00000001FF
