:020000040000FA
:04000000C1EF04F058
:10080000006D6F68616D656400000D6E0D04D8A405
:1008100008D00A500F0B80090E6E0E5055EC04F0F4
:1008200012D00A500F0BC0090E6E0E5055EC04F09A
:100830000AD00BC0F6FF0CC0F7FF0800F5502DECF6
:1008400004F00B4A0C2A0BC0F6FF0CC0F7FF08009F
:10085000F5500009D8B41200ECD7096E09C008F0B1
:1008600008C007F0073A0F0E07168C50F00B071060
:100870008C6E8C888C8A00F08C9A000E026E010EB1
:10088000016E98EC04F009C007F00F0E07168C50AB
:10089000F00B07108C6E8C8A00F08C9A000E026EA2
:1008A000030E016E98EC04F01200096E09C008F006
:1008B00008C007F0073A0F0E07168C50F00B071010
:1008C0008C6E8C988C8A00F08C9A000E026E010E51
:1008D000016E98EC04F009C007F00F0E07168C505B
:1008E000F00B07108C6E8C8A00F08C9A000E026E52
:1008F000030E016E98EC04F01200000E956E000ECF
:10090000026E0F0E016E98EC04F0020E55EC04F02E
:10091000280E55EC04F0010E55EC04F00C0E55ECCD
:1009200004F0140E55EC04F0060E55EC04F0120021
:10093000000E046E000E036E0ED0000E066E000E4A
:10094000056E054A062A065004E1A50E055CD8A0EE
:10095000F8D7034A042A0150035C02500458D8B067
:100960001200EBD77DEC04F0660E2DEC04F0030EC4
:100970000A6E010E0B6E080E0C6E020E05EC04F0F2
:10098000FFD7000EF86E080EF76E0001B2EF04F00C
:020000040020DA
:08000000FFFFFFFFFFFFFFFF00
:020000040030CA
:0E00000000081F1EFF0185FF0FC00FE00F401C
:00000001FF
