:020000040000FA
:04000000C1EF07F055
:100F78003F065B4F666D7D077F6F780EF66E0F0E2E
:100F8800F76E000EF86E00EE01F010EE0AF00900A0
:100F9800F5CFEEFFE550E150FAE10D6A0001D5EF1B
:100FA80007F09480000E936E760ED36E010E0D241A
:100FB800D96EDA6A000EDA22DF508A6E82B014D057
:100FC8000D2A010E0D24D96EDA6A000EDA22DF50DE
:100FD8008A6E040E0C6E0C0E0B6E340EE82EFED7C5
:100FE8000B2EFCD70C2EFAD7090E0D64E7D7000E8E
:080FF8000D6E01C08AFFE2D773
:020000040020DA
:08000000FFFFFFFFFFFFFFFF00
:020000040030CA
:0E000000FFC80D1EFF0385FF0FC00FE00F406D
:00000001FF
