:020000040000FA
:04000000B5EF3FF029
:107F6A000001BDEF3FF09EA6FED79E96C9501200B3
:107F7A00000E016E000E026E000E036E040ECCECB3
:107F8A003FF0000E956EB8EC3FF08C6EFCD7056E94
:107F9A00050E0518D8B404D0040E0518D8A404D0C8
:107FAA00949E9382928A02D0949E939205C004F082
:107FBA000F0E0416C650F00B0410C66E0150D8A45A
:107FCA0002D0C79E03D00104D8B4C78E0250D8A4E9
:107FDA0002D0C79C03D00204D8B4C78C0350D8A4DB
:107FEA0002D0C69803D00304D8B4C688C68AC69EEF
:067FFA00C69C9E961200D9
:020000040020DA
:08000000FFFFFFFFFFFFFFFF00
:020000040030CA
:0E0000000008191EFF8185FF0FC00FE00F40A2
:00000001FF
