:020000040000FA
:0400000096EF3FF048
:107F2C000001A0EF3FF0016E01C0C9FF9EA6FED775
:107F3C009E961200000E016E000E026E000E036E75
:107F4C00020ECCEC3FF094908B90000E096E000E5C
:107F5C00086E085099EC3FF0000E076E000E066E8E
:107F6C00064A072A07BEFCD7100E065C270E0758D8
:107F7C00D8A0F6D7084A092A09BEEBD7095004E164
:107F8C00100E085CD8A0E5D78B80DED7056E050EE9
:107F9C000518D8B404D0040E0518D8A404D0949EA7
:107FAC009382928A02D0949E939205C004F00F0E95
:107FBC000416C650F00B0410C66E0150D8A402D0A3
:107FCC00C79E03D00104D8B4C78E0250D8A402D0E7
:107FDC00C79C03D00204D8B4C78C0350D8A402D0D9
:107FEC00C69803D00304D8B4C688C68AC69EC69C5D
:047FFC009E9612003B
:020000040020DA
:08000000FFFFFFFFFFFFFFFF00
:020000040030CA
:0E0000000008191EFF8185FF0FC00FE00F40A2
:00000001FF
