:020000040000FA
:04000000A0EF08F075
:10080000006D6F68616D6564206D61676479212199
:10081000212100002B50800B346E2B502B24366E80
:100820002ABE36803650D8B40DD03628D8A408D089
:10083000000E286E000E296E000E2A6E000E2B6E22
:100840002A8E06D0000E286E000E296E000E2A6E2B
:10085000000E2B6E2F50800B356E34503518D8A4F7
:10086000348C2F502F24356E2EBE35803550D8B4A1
:100870000DD03528D8A408D0000E2C6E000E2D6E99
:10088000000E2E6E000E2F6E2E8E06D0000E2C6ED9
:10089000000E2D6E000E2E6E000E2F6E3650355C43
:1008A000D8B022D034AC02D0800E341A36C037F023
:1008B00035C036F037C035F028C037F02CC028F0EE
:1008C00037C02CF029C037F02DC029F037C02DF0EB
:1008D0002AC037F02EC02AF037C02EF02BC037F0D8
:1008E0002FC02BF037C02FF0000E376E365035C0BA
:1008F00030F0316A305E000E315A31BE2CD03150AA
:1009000004E11A0E305CD8A026D0285029102A10F5
:100910002B10D8B402D0010E01D0000E376E000E9D
:10092000286E000E296E000E2A6E000E2B6E35C04A
:1009300036F015D037A005D0D89037300109376E82
:1009400002D0D890373228B0378E2B342B322A324F
:1009500029322832362A3550365CD8A0EBD734BC41
:1009600028D03650D8A409D0000E286E000E296E6B
:10097000000E2A6E000E2B6E12002C5028262D50D1
:1009800029222E502A222F502B222BA071D037A0A3
:1009900005D0D89037300109376E02D0D890373261
:1009A00028B0378E2B342B322A3229322832362A7D
:1009B0005FD02C50285C2D5029582E502A582B508F
:1009C000800A306E2F50800A3058D8B025D0285079
:1009D0002C5C306E29502D58316E2A502E58326EB4
:1009E0002B502F58336EFF0E3024286EFF0E31200F
:1009F000296EFF0E32202A6EFF0E33202B6E800EE2
:100A0000341A376C3750D8A40FD0010E2826000EA8
:100A100029222A222B2208D02C50285E2D50295A18
:100A20002E502A5A2F502B5A285029102A102B109A
:100A3000D8A41CD03750D8A419D0000E286E000EB0
:100A4000296E000E2A6E000E2B6E1200D8902836EA
:100A500029362A362B3637BE288037A002D0D880D8
:100A600001D0D89037363650D8A436062AAEEED705
:100A7000000E356E37AE0BD037C030F07F0E30161B
:100A8000D8B403D0010E356E02D028B0FBD7355054
:100A9000D8B420D0010E2826000E29222A222B228B
:100AA0002BA018D028C030F029C031F02AC032F075
:100AB0002BC033F03334333232323132303230C043
:100AC00028F031C029F032C02AF033C02BF036288C
:100AD000D8A4362A3628D8B403D03650D8A40DD09E
:100AE000000E286E000E296E000E2A6E000E2B6E70
:100AF0003650D8A402D0000E346E36A002D02A8E12
:100B000001D02A9ED89036302B6E34BE2B8E28C052
:100B100028F029C029F02AC02AF02BC02BF012009F
:100B20001250800B1F6E12501224266E11BE2680AA
:100B30002650D8B40DD02628D8A408D0000E0F6EA9
:100B4000000E106E000E116E000E126E118E06D089
:100B5000000E0F6E000E106E000E116E000E126E63
:100B60001650800B1F1A16501624276E15BE2780AC
:100B70002750D8B40DD02728D8A408D0000E136E63
:100B8000000E146E000E156E000E166E158E06D039
:100B9000000E136E000E146E000E156E000E166E13
:100BA0001350141015101610D8A417D0000E0F6E85
:100BB000000E106E000E116E000E126E800E1112DD
:100BC0007F0E12121F5012120FC00FF010C010F043
:100BD00011C011F012C012F012002650D8A409D092
:100BE000000E0F6E000E106E000E116E000E126ED3
:100BF0001200275026C017F0186A175E000E185A08
:100C00007F0E1724206E000E1820216E0FC01BF0DF
:100C100010C01CF011C01DF012C01EF0000E0F6EAF
:100C2000000E106E000E116E000E126E000E226E7F
:100C3000000E236E000E246E000E256E000E276E31
:100C400028D02750D8B411D0D8901B361C361D366A
:100C50001E36D8900F3610361136123625BE0F804C
:100C6000D890223623362436253613501B5C145078
:100C70001C5815501D5816501E58D8A009D0258C48
:100C800013501B5E14501C5A15501D5A16501E5AF4
:100C9000272A190E2764D5D71B501C101D101E10B3
:100CA000D8B411D022800FD0D8900F36103611361C
:100CB000123625BE0F80D8902236233624362536AC
:100CC0002006D8A0210611AEEFD7000E276E25AE64
:100CD00017D0FF0E2214176EFF0E2314186EFF0E8E
:100CE0002414196E7F0E25141A6E1750181019103F
:100CF0001A10D8B403D0010E276E02D00FB0FBD764
:100D00002750D8B41FD0010E0F26000E102211223A
:100D1000122212A017D00FC017F010C018F011C087
:100D200019F012C01AF01A341A3219321832173266
:100D300017C00FF018C010F019C011F01AC012F04F
:100D4000204A212A21BE10D0215003E12028D8A01A
:100D50000BD0000E216E2068000E0F6E000E106E7C
:100D6000000E116E000E126E21BE05D0215011E151
:100D70002004D8B00ED0000E216E000E206E000EA2
:100D80000F6E000E106E000E116E000E126E000E31
:100D90001F6E20C026F026A002D0118E01D0119E19
:100DA000D8902630126E0ED7096E0950D8A404AE22
:100DB0001AD001C005F002C006F003C007F004C05D
:100DC00008F0051E061E071E081E052A000E062234
:100DD0000722082205C00BF006C00CF007C00DF07A
:100DE00008C00EF008D001C00BF002C00CF003C028
:100DF0000DF004C00EF00150021003100410D8A42E
:100E000009D0000E016E000E026E000E036E000E81
:100E1000046E1200960E0A6E06D00A2AD8900E3280
:100E20000D320C320B32000E0B14056E000E0C143A
:100E3000066E000E0D14076EFE0E0E14086E0550A1
:100E4000061007100810D8B40DD0E7D70A2A010EF3
:100E50000B26000E0C220D220E22D8900E320D32DF
:100E60000C320B32000E0B14056E000E0C14066EC5
:100E7000000E0D14076EFF0E0E14086E05500610BE
:100E800007100810D8B407D0E1D70A06D8900B365F
:100E90000C360D360E360DBE03D0020E0A60F5D7A5
:100EA0000AA00D9ED8900A320AC005F0066A076AA9
:100EB000086A05C008F0076A066A056A05500B1241
:100EC00006500C1207500D1208500E120950D8A4EB
:100ED00004AE01D00E8E0BC001F00CC002F00DC0AC
:100EE00003F00EC004F012003A343B34416E41501E
:100EF000D8A409D0000E386E000E396E000E3A6E7E
:100F0000000E3B6E120038C03CF039C03DF03AC0D4
:100F10003EF03BC03FF0200E05D0D8903F323E322D
:100F20003D323C32E82EF9D73C50406E3A8EFF0EEF
:100F30003816FF0E3916FF0E3A16000E3B16960EA7
:100F4000415E41AE0DD04150800A970FD8A0D2D754
:100F5000D8903B323A3239323832413EF9D70DD04F
:100F60001F0E416407D0C6D7D890383639363A3686
:100F70003B3641064150D8A4F7D74050D8B408D0EA
:100F80003B1E3A1E391E386C000E39223A223B2293
:100F900038C038F039C039F03AC03AF03BC03BF0C5
:100FA0001200949C948E000EB86E000E2C6E000EF3
:100FB0002D6E800E2E6EBF0E2F6E42C001F043C00C
:100FC00002F0036A046A000ED4EC06F001C013F0CC
:100FD00002C014F003C015F004C016F0000E0F6E2E
:100FE000240E106EF40E116E470E126E90EC05F08A
:100FF0000FC028F010C029F011C02AF012C02BF049
:101000000AEC04F028C038F029C039F02AC03AF0C0
:101010002BC03BF074EC07F03850AF6E200EAC6E76
:10102000900EAB6E1200000E456E000E446E000E68
:10103000466E720ED36E250E436E800E426ED1EC5C
:1010400007F0000E056E000E046E010E066E080E0F
:10105000076E41EC08F011D044C001F045C002F029
:10106000ADEC08F0466EA7EC08F00009D8B4FBD749
:10107000465096EC08F0444A452A4628D8A4ECD7B6
:10108000FFD7000E0A6E16D004C001F005C002F0B2
:101090000A500624086E000E0720096E08C0F6FFED
:1010A00009C0F7FF0800F5CF03F084EC08F0044A0C
:1010B000052A0A2A0A500624086E000E0720096E27
:1010C00008C0F6FF09C0F7FF0800F5500009D8B4C2
:1010D0001200DAD7000E046E000E036E0ED0000E62
:1010E000066E000E056E054A062A065004E1A50E9E
:1010F000055CD8A0F8D7034A042A0150035C0250CB
:101100000458D8B01200EBD7F29E01C0A9FF03C06B
:10111000A8FFA69EA69CA684550EA76EAA0EA76E33
:10112000A682A684A1A8FED7A1981200076E07C0C8
:10113000ADFF000E026E050E016E6AEC08F01200A3
:10114000000EF86E080EF76E000113EF08F09E38DF
:101150000F0B010B016E0150120001C0A9FF010E1F
:06116000A66EA85012006B
:020000040020DA
:08000000FFFFFFFFFFFFFFFF00
:020000040030CA
:0E0000000008191EFF8185FF0FC00FE00F40A2
:00000001FF
