:020000040000FA
:0400000020EF3BF0C2
:10764000000129EF3BF0000ECC6E0C0EBD6ECA841B
:107650001200720ED36E100E586E270E596E000E69
:107660005A6E000E5B6E020E5D6E000E5C6EDAEC02
:107670003BF023EC3BF0FFD7000E096E000E0A6EC4
:10768000000E0B6E000E0C6E055006100710081051
:10769000D8B42AD0010E0D6E06D0D8900536063625
:1076A000073608360D2A08AEF8D7D89009360A36BC
:1076B0000B360C360550015C065002580750035833
:1076C00008500458D8A009D00550015E0650025A4F
:1076D0000750035A0850045A0980D89008320732DC
:1076E000063205320D2EE1D709C001F00AC002F0C2
:1076F0000BC003F00CC004F0120050345134576E2C
:107700005750D8A409D0000E4E6E000E4F6E000EDA
:10771000506E000E516E12004EC052F04FC053F02A
:1077200050C054F051C055F0200E05D0D8905532BD
:10773000543253325232E82EF9D75250566E508E90
:10774000FF0E4E16FF0E4F16FF0E5016000E51166E
:10775000960E575E57AE0DD05750800A970FD8A09F
:10776000D2D7D890513250324F324E32573EF9D79D
:107770000DD01F0E576407D0C6D7D8904E364F365F
:107780005036513657065750D8A4F7D75650D8B46C
:1077900008D0511E501E4F1E4E6C000E4F2250221C
:1077A00051224EC04EF04FC04FF050C050F051C06B
:1077B00051F012009494000E016E120E026E7A0EB9
:1077C000036E000E046E58C060F059C061F05AC0DC
:1077D00062F05BC063F0020ED89000016037613741
:1077E00062376337E82EF8D760C005F061C006F055
:1077F00062C007F063C008F03CEC3BF00104CB6EC4
:10780000CA92CA9058C005F059C006F05AC007F095
:107810005BC008F0000E016E120E026E7A0E036E4F
:10782000000E046E3CEC3BF001C00EF002C00FF005
:1078300003C010F004C011F0000E73EC3CF00EC059
:1078400039F00FC03AF010C03BF011C03CF0000E10
:10785000206EC00E216E7F0E226E440E236E5CC021
:107860000EF05DC00FF0106A116A000E73EC3CF070
:107870000EC01CF00FC01DF010C01EF011C01FF094
:1078800013EC3DF01CC035F01DC036F01EC037F0C3
:107890001FC038F057EC3EF035C04EF036C04FF008
:1078A00037C050F038C051F07DEC3BF04EC05EF078
:1078B0004FC05FF05EC060F0030E00016017603BD8
:1078C000F00E6017BD50CF0B6011BD6E5EC060F052
:1078D0005FC061F0D89061336033D890613360331A
:1078E0006051BE6E1200166E1650D8A411AE1AD09A
:1078F0000EC012F00FC013F010C014F011C015F03C
:10790000121E131E141E151E122A000E13221422FC
:10791000152212C018F013C019F014C01AF015C0C7
:107920001BF008D00EC018F00FC019F010C01AF0EC
:1079300011C01BF00E500F1010101110D8A409D058
:10794000000E0E6E000E0F6E000E106E000E116E09
:107950001200960E176E06D0172AD8901B321A32D4
:1079600019321832000E1814126E000E1914136E0C
:10797000000E1A14146EFE0E1B14156E1250131006
:1079800014101510D8B40DD0E7D7172A010E1826F9
:10799000000E19221A221B22D8901B321A321932D9
:1079A0001832000E1814126E000E1914136E000E09
:1079B0001A14146EFF0E1B14156E125013101410AF
:1079C0001510D8B407D0E1D71706D8901836193655
:1079D0001A361B361ABE03D0020E1760F5D717A051
:1079E0001A9ED890173217C012F0136A146A156ADB
:1079F00012C015F0146A136A126A1250181213504A
:107A0000191214501A1215501B121650D8A411AE88
:107A100001D01B8E18C00EF019C00FF01AC010F064
:107A20001BC011F012001F50800B2C6E1F501F2422
:107A3000336E1EBE33803350D8B40DD03328D8A453
:107A400008D0000E1C6E000E1D6E000E1E6E000E85
:107A50001F6E1E8E06D0000E1C6E000E1D6E000ED8
:107A60001E6E000E1F6E2350800B2C1A23502324F1
:107A7000346E22BE34803450D8B40DD03428D8A40B
:107A800008D0000E206E000E216E000E226E000E39
:107A9000236E228E06D0000E206E000E216E000E88
:107AA000226E000E236E2050211022102310D8A425
:107AB00017D0000E1C6E000E1D6E000E1E6E000E06
:107AC0001F6E800E1E127F0E1F122C501F121CC024
:107AD0001CF01DC01DF01EC01EF01FC01FF01200C4
:107AE0003350D8A409D0000E1C6E000E1D6E000E7F
:107AF0001E6E000E1F6E1200345033C024F0256A33
:107B0000245E000E255A7F0E24242D6E000E2520A3
:107B10002E6E1CC028F01DC029F01EC02AF01FC008
:107B20002BF0000E1C6E000E1D6E000E1E6E000E61
:107B30001F6E000E2F6E000E306E000E316E000EA6
:107B4000326E000E346E28D03450D8B411D0D89094
:107B5000283629362A362B36D8901C361D361E3646
:107B60001F3632BE1C80D8902F3630363136323632
:107B70002050285C2150295822502A5823502B5835
:107B8000D8A009D0328C2050285E2150295A22508A
:107B90002A5A23502B5A342A190E3464D5D7285028
:107BA00029102A102B10D8B411D02F800FD0D890C4
:107BB0001C361D361E361F3632BE1C80D8902F361E
:107BC0003036313632362D06D8A02E061EAEEFD70F
:107BD000000E346E32AE17D0FF0E2F14246EFF0E3F
:107BE0003014256EFF0E3114266E7F0E3214276E70
:107BF0002450251026102710D8B403D0010E346E5F
:107C000002D01CB0FBD73450D8B41FD0010E1C26B4
:107C1000000E1D221E221F221FA017D01CC024F000
:107C20001DC025F01EC026F01FC027F027342732C4
:107C300026322532243224C01CF025C01DF026C077
:107C40001EF027C01FF02D4A2E2A2EBE10D02E5017
:107C500003E12D28D8A00BD0000E2E6E2D68000E4B
:107C60001C6E000E1D6E000E1E6E000E1F6E2EBED0
:107C700005D02E5011E12D04D8B00ED0000E2E6E7E
:107C8000000E2D6E000E1C6E000E1D6E000E1E6E80
:107C9000000E1F6E000E2C6E2DC033F033A002D0EC
:107CA0001E8E01D01E9ED89033301F6E0ED73850D6
:107CB000800B416E38503824476E37BE478047509E
:107CC000D8B40DD04728D8A408D0000E356E000EC9
:107CD000366E000E376E000E386E378E08D0000EEE
:107CE000356E000E366E000E376E000E386E3C504C
:107CF000800B411A3C503C24466E3BBE46804650A9
:107D0000D8B40DD04628D8A408D0000E396E000E85
:107D10003A6E000E3B6E000E3C6E3B8E08D0000E9D
:107D2000396E000E3A6E000E3B6E000E3C6E4650F1
:107D3000D8B403D04750D8A409D0000E356E000E39
:107D4000366E000E376E000E386E12003B50350254
:107D5000F3CF4CF0F4CF4DF04C50426E436A446A7E
:107D6000456A4D50486E496A4A6A4B6A3A50360233
:107D7000F3CF4CF0F4CF4DF04C504226000E43228E
:107D8000442245224D504826000E49224A224B22C9
:107D900039503702F3CF4CF0F4CF4DF04C5042261F
:107DA000000E4322442245224D504826000E49220F
:107DB0004A224B2244C045F043C044F042C043F045
:107DC000426A39503602F3CF4CF0F4CF4DF04C50AC
:107DD00042264D504322000E4422000E45223A50C6
:107DE0003502F3CF4CF0F4CF4DF04C5042264D50BD
:107DF0004322000E4422000E452244C045F043C0F9
:107E000044F042C043F0426A39503502F3CF4CF09F
:107E1000F4CF4DF04C5042264D504322000E4422E8
:107E2000000E45223B503602F3CF4CF0F4CF4DF01C
:107E30004C5048264D504922000E4A22000E4B223B
:107E40003A503702F3CF4CF0F4CF4DF04C50482667
:107E50004D504922000E4A22000E4B223B50370261
:107E6000F3CF4CF0F4CF4DF04C503D6E4D503E6E84
:107E70003F6A406A3FC040F03EC03FF03DC03EF028
:107E80003D6A3D5048263E5049223F504A224050CC
:107E90004B2242C03DF043C03EF044C03FF045C0DD
:107EA00040F0190E05D0D89040323F323E323D327C
:107EB000E82EF9D73D5048263E5049223F504A22ED
:107EC00040504B2244C045F043C044F042C043F010
:107ED000426A465047C03DF03E6A3D26000E3E22B3
:107EE000820E3D244C6EFF0E3E204D6E0FD0D8907A
:107EF000483649364A364B3645BE4880D8904236D9
:107F00004336443645364C06D8A04D064AAEEFD728
:107F1000000E466E45AE17D0FF0E42143D6EFF0EAA
:107F200043143E6EFF0E44143F6E7F0E4514406EA8
:107F30003D503E103F104010D8B403D0010E466EA5
:107F400002D048B0FBD74650D8B41FD0010E482607
:107F5000000E49224A224B224BA017D048C03DF0C8
:107F600049C03EF04AC03FF04BC040F04034403280
:107F70003F323E323D323DC048F03EC049F03FC046
:107F80004AF040C04BF04C4A4D2A4DBE0DD04D50EA
:107F900003E14C28D8A008D0000E486E000E496EB0
:107FA000800E4A6E7F0E20D04DBE05D04D500EE1A2
:107FB0004C04D8B00BD0000E486E000E496E000E77
:107FC0004A6E000E4B6E000E416E0FD04CC047F053
:107FD000FF0E4816FF0E49167F0E4A16000E4B166E
:107FE00047B04A8ED89047304B6E41504B1248C034
:107FF00035F049C036F04AC037F04BC038F01200B7
:020000040020DA
:08000000FFFFFFFFFFFFFFFF00
:020000040030CA
:0E0000000008191EFF8185FF0FC00FE00F40A2
:00000001FF
